:020000020000FC
:105C00003140005C3C40C81F3D40180DB113104DA1
:105C10003C40001C3D4082AD3E40C703B11396514D
:105C2000B113EA09B1139E513F1592C3020192C309
:105C30000001B240805A5C015E4218262C430D439D
:105C4000B113284A5E4218262C430D43B113DA499A
:105C5000C24318263C1700133F151F4244201FD291
:105C600046200F93022480134420B1C0F0000800A6
:105C70003C1700133F151F4252201FD254200F9390
:105C8000022480135220B1C0F00008003C1700131A
:105C90005F155A421C025AF21A024B4A5BF28628DE
:105CA0005BB30228801358206BB3022880135C205A
:105CB0006BB20228801360207BB20228801364201C
:105CC0007BB010000228801368207BB020000228DF
:105CD00080136C207BB040000228801370204B930F
:105CE000023480137420C2CA1C02B1C0F0000C0040
:105CF0005A1700135F155A421D025AF21B024B4AF3
:105D00005BF287285BB30228801378206BB30228EC
:105D100080137C206BB20228801380207BB2022883
:105D2000801384207BB010000228801388207BB071
:105D30002000022880138C207BB0400002288013B2
:105D400090204B93023480139420C2CA1D02B1C02C
:105D5000F0000C005A1700130000290001002E006B
:105D600002000600030047000400D3000500910074
:105D70000600FF00070004000800050009000000FD
:105D80000A0000000B0006000C0000000D002300BC
:105D90000E0031000F003B001000F80011008300DE
:105DA00012000300130022001400F8001500140074
:105DB00016000700170030001800180019001D0019
:105DC0001A006C001B0043001C0040001D009100E5
:105DD0001E0087001F006B002000FB002100560002
:105DE000220010002300E90024002A002500000002
:105DF00026001F002700410028000000290059004C
:105E00002A007F002B003F002C0081002D00350070
:105E10002E0009000000290001002E0002000600EB
:105E2000030047000400D300050091000600FF00B6
:105E30000700040008000500090000000A00000037
:105E40000B0008000C0000000D0023000E003100C4
:105E50000F003B001000AA001100F8001200030020
:105E6000130022001400F80015004000160007007F
:105E7000170030001800180019001D001A006C00EF
:105E80001B0043001C0040001D0091001E00870005
:105E90001F006B002000FB002100560022001000B4
:105EA0002300E90024002A002500000026001F002E
:105EB0002700410028000000290059002A007F0027
:105EC0002B003F002C0081002D0035002E00090022
:105ED0000000290001002E00020006000300470018
:105EE0000400D300050091000600FF000700040035
:105EF00008000500090000000A0000000B0008006F
:105F00000C0000000D0023000E0031000F003B00CC
:105F100010006C0011002200120013001300220078
:105F20001400F800150047001600070017003000A5
:105F30001800180019001D001A006C001B00C70093
:105F40001C0000001D00B2001E0087001F006B0037
:105F50002000FB002100B600220010002300E90011
:105F600024002A002500000026001F002700410011
:105F700028000000290059002A007F002B003F0064
:105F80002C0081002D0035002E00090000002900A2
:105F900001002E0002000600030047000400D300A9
:105FA000050091000600FF0007000400080005003E
:105FB000090000000A0000000B000C000C000000AB
:105FC0000D0023000E0031000F003B0010003D00CB
:105FD00011007A0012000300130022001400F800E0
:105FE00015005400160007001700300018001800B4
:105FF00019001D001A006C001B00C7001C000000E7
:106000001D00B2001E0087001F006B002000FB0077
:106010002100B600220010002300E90024002A001D
:106020002500000026001F00270041002800000076
:10603000290059002A007F002B003F002C00880017
:106040002D0031002E0009002E0009002D00350022
:106050002C0081002B003F002A007F0029005900FE
:10606000280000002700410026001F002500000036
:1060700024002A002300E90022001000210056001D
:106080002000FB001F006B001E0087001D00910018
:106090001C0040001B0003001A006C0019001600D1
:1060A0001800180017003000160007001500140033
:1060B0001400E50013002200120013001100750007
:1060C000100085000F0062000E0034000D0020005B
:1060D0000C0000000B0006000A0000000900000090
:1060E00008000500070004000600FF0005009100FD
:1060F0000400D300030007000200060001002E0088
:10610000000029002E0009002D0035002C00810020
:106110002B003F002A007F002900590028000000C2
:106120002700410026001F002500000024002A004F
:106130002300E90022001000210056002000FB008F
:106140001F006B001E0087001D0091001C00400016
:106150001B0003001A006C0019001600180018003C
:106160001700300016000700150031001400E5008C
:1061700013002200120013001100750010008500AA
:106180000F0062000E0034000D0020000C00000023
:106190000B0006000A0000000900000008000500CE
:1061A000070004000600FF00050091000400D30072
:1061B000030007000200060001002E000000290075
:1061C0002E0009002D0035002C0081002B003F001F
:1061D0002A007F0029005900280000002700410004
:1061E00026001F002500000024002A002300E900EB
:1061F00022001000210056002000FB001F006B0051
:106200001E0087001D0091001C0040001B00430081
:106210001A006C0019001600180018001700300052
:1062200016000700150037001400E50013002200D7
:106230001200130011007500100087000F006200AB
:106240000E0034000D0020000C0000000B000600C2
:106250000A00000009000000080005000700040013
:106260000600FF00050091000400D30003000700B2
:106270000200060001002E00000029002E00090087
:106280002D0035002C0081002B003F002A007F00EC
:1062900029005900280000002700410026001F00A7
:1062A0002500000024002A002300E900220010003D
:1062B000210056002000FB001F006B001E0087001D
:1062C0001D0091001C0040001B0043001A006C00E0
:1062D00019001600180018001700300016000700FB
:1062E000150034001400E500130022001200130012
:1062F0001100750010008A000F0062000E003400CB
:106300000D0020000C0000000B0006000A00000039
:106310000900000008000500070004000600FF0057
:10632000050091000400D3000300070002000600EE
:1063300001002E00000029008DFF8AFF99FF95FFC4
:1063400090FF94FF98FF9EFF9A99993F9A99993FE1
:106350009A99994014AE19429A99194100004842FD
:106360000000E642000096430200060003004700DA
:10637000080005000B0006000D0021000E00620061
:106380000F0076001000F5001100830012001300CA
:106390001500150018001800190016002000FB0059
:1063A0002300E90024002A002500000026001F0029
:1063B0002C0081002D0035002E000900000029006E
:1063C00001002E0002000600030007000400D300B5
:1063D000050091000600FF0007000400080005000A
:1063E000090000000A0000000B0006000C0000007D
:1063F0000D0010000E00B1000F003B001000F50072
:106400001100830012001300130022001400F80092
:1064100015001500160007001700300018001800BE
:10642000190016001A006C001B0003001C0040003D
:106430001D0091001E0087001F006B002000FB0064
:1064400021005600220010002300E90024002A0049
:106450002500000026001F00270041002800000042
:10646000290059002A007F002B003F002C008100EA
:106470002D0035002E0009000000290001002E002B
:1064800002000600030007000400D300050091008D
:106490000600FF00070004000800050009000000D6
:1064A0000A0000000B0006000C0000000D001000A8
:1064B0000E00B1000F003B001000CA001100830065
:1064C00012001300130022001400F800150035001C
:1064D00016000700170030001800180019001600F9
:1064E0001A006C001B0043001C0040001D009100BE
:1064F0001E0087001F006B002000FB0021005600DB
:10650000220010002300E90024002A0025000000DA
:1065100026001F0027004100280000002900590024
:106520002A007F002B003F002C0081002D00350049
:106530002E0009000000290001002E0002000600C4
:10654000030007000400D300050091000600FF00CF
:106550000700040008000500090000000A00000010
:106560000B000C000C0000000D0010000E00B1002C
:106570000F003B0010002D0011003B001200130023
:10658000130022001400F800150062001600070036
:10659000170030001800180019001D001A001C0018
:1065A0001B00C7001C0000001D00B0001E0087007B
:1065B0001F006B002000FB002100B600220010002D
:1065C0002300EA0024002A002500000026001F0006
:1065D0002700410028000000290059002A007F0000
:1065E0002B003F002C0088002D0031002E000900F8
:1065F000120003001500120090FF98FFA1FF9A9966
:10660000993F1F851942A4F0794302000600030058
:106610004700080005000B0006000D0021000E00D9
:1066200062000F0076001000F500110083001200D8
:10663000130015001500180018001900160020009E
:10664000FB002300E90024002A00250000002600AA
:106650001F002C0081002D0035002E0009000200D3
:10666000060003004700080005000B0006000D00AF
:1066700021000E0062000F0076001000F5001100EE
:1066800083001200130015001500180018001900EF
:1066900016002000FB002300E90024002A0025004A
:1066A000000026001F002C0081002D0035002E0068
:1066B000090007000400090000000B0006000C00A0
:1066C00000001000F50011008300120013001300F9
:1066D00022001500150016000700190016001A0008
:1066E0006C001B0003001C0040001D0091002000F6
:1066F000FB002100B600220010002C0081002D00BC
:1067000035002E00090007000400090000000B00FE
:1067100006000C0000001000CA00110083001200E7
:1067200013001300220015003500160007001900A1
:1067300016001A006C001B0043001C0040001D00E6
:1067400091002000FB002100B600220010002C0068
:1067500081002D0035002E0009000700040009000B
:1067600000000B000C000C00000010002D001100B8
:106770003B001200130013002200150062001600F7
:10678000070019001D001A001C001B00C7001C0098
:1067900000001D00B0002000FB002100B600220018
:1067A00010002C0088002D0031002E000900000090
:1067B000290001002E00020006000300070004006B
:1067C000D300050091000600FF00080005000D0041
:1067D00010000E00B1000F003B0017003000180041
:1067E00018002300EA0024002A00250000002600EB
:1067F0001F00290059002A007F002B003F001200D3
:1068000003001500120090FF98FFA1FF9A99993F8D
:106810001F851942A4F0794303000600122F0000DF
:10682000132F5F00172F0E00192F03001B2F3300AB
:106830001D2F17001F2F5000202F6E00212F140036
:10684000222FAC00322F0E00332FA000342FC700B0
:10685000362F0300382F00001E0000001F0000002C
:106860002000030021001200260000002700050080
:106870002800200029000F002A00000004009300D7
:1068800005000B00060051000700DE0008000B00A9
:10689000090017000A0006000B0003000C001C0092
:1068A0000D0018000E002A000F0040001000C60066
:1068B00011000800120046001300050014004300F8
:1068C0001500A90016002A00170020001800190062
:1068D000190000001A0091001B0020001C00A900F4
:1068E0001D00CF002B007F002C0056002D007C00E7
:1068F000002F0000012F2200022F0B00052F0000A7
:1069000003000600122F0000132F5F00172F0E0048
:10691000192F03001B2F33001D2F17001F2F5000AE
:10692000202F6E00212F1400222FAC00322F0E00DA
:10693000332FA000342FC700362F0300382F00005C
:106940001E0000001F0000002000030021001200B4
:1069500026000000270005002800200029000F0065
:106960002A0000000400930005000B0006005100FF
:106970000700DE0008000800090017000A0099005F
:106980000B000D000C0015000D0018000E002A0071
:106990000F0000001000000011000100120046006E
:1069A00013000500140099001500990016009900C5
:1069B00017003C001800EF00190000001A008300C7
:1069C0001B0060001C00A9001D00C0002B007F0000
:1069D0002C0056002D007900002F0400012F20000C
:1069E000022F0A00052F00000400D30005009100CB
:1069F0000600D300070091009A99993F0000484291
:106A00000300060008000B000C001C001000C6006C
:106A100011000800130005001700200018001900DD
:106A20001C00A9001D00CF001E0000002000030074
:106A30002100120027000500280020002B004F0035
:106A40002C0056002D001C002E00FF00002F00001F
:106A5000012F22000C2F6C000D2F80000E2F000044
:106A6000122F0000132F5F00172F0E00192F0300A5
:106A70001B2F33001D2F17001F2F5000202F6E00DB
:106A8000212F1400222FAC00322F0E00342FC7000C
:106A9000362F07000300060008000B000A00A300C1
:106AA0000B000A000C001C000F0033001000C60091
:106AB000110010001300050014003F0015007500C0
:106AC0001600100017002000180019001C00A90073
:106AD0001D00CF001E000000200003002100120056
:106AE000280020002E00FF00002F0000012F2200B0
:106AF0000C2F56000D2FEC000E2F2800112F050033
:106B0000122F0000132F5F00172F0E00192F030004
:106B10001B2F33001D2F17001F2F5000202F6E003A
:106B2000212F1400222FAC00322F0E00342FC7006B
:106B3000362F07000300060008000B000C001C00A5
:106B40001000C60011000800130005001700200007
:106B5000180019001C00A9001D00CF001E00000035
:106B6000200003002100120027000500280020005B
:106B70002B004F002C0056002D001C002E00FF00A3
:106B8000002F0000012F22000C2F6C000D2F800021
:106B90000E2F0000122F0000132F5F00172F0E0082
:106BA000192F03001B2F33001D2F17001F2F50001C
:106BB000202F6E00212F1400222FAC00322F0E0048
:106BC000342FC700362F07000300060008000B0013
:106BD0000A00A3000B000A000C001C000F00330089
:106BE0001000C600110010001300050014003F0043
:106BF000150075001600100017002000180019007D
:106C00001C00A9001D00CF001E0000002000030092
:106C100021001200280020002E00FF00002F00009D
:106C2000012F22000C2F56000D2FEC000E2F2800F4
:106C3000112F0500122F0000132F5F00172F0E00D9
:106C4000192F03001B2F33001D2F17001F2F50007B
:106C5000202F6E00212F1400222FAC00322F0E00A7
:106C6000342FC700362F070003000600122F000044
:106C7000132F5F00172F0E00192F03001B2F330057
:106C80001D2F17001F2F5000202F6E00212F1400E2
:106C9000222FAC00322F0E00332FA000342FC7005C
:106CA000362F0300382F00001E0000001F000000D8
:106CB000200003002100120026000000270005002C
:106CC0002800200029000F002A0000000400930083
:106CD00005000B00060051000700DE0008000B0055
:106CE000090017000A0006000B0003000C001C003E
:106CF0000D0018000E002A000F0040001000C60012
:106D000011000800120046001300050014004300A3
:106D10001500A90016002A00170020001800020024
:106D2000190000001A0091001B0020001C00A9009F
:106D30001D00CF002B007F002C0056002D007C0092
:106D4000002F0000012F2200022F0B00052F000052
:106D500003000600122F0000132F5F00172F0E00F4
:106D6000192F03001B2F33001D2F17001F2F50005A
:106D7000202F6E00212F1400222FAC00322F0E0086
:106D8000332FA000342FC700362F0300382F000008
:106D90001E0000001F000000200003002100120060
:106DA00026000000270005002800200029000F0011
:106DB0002A0000000400930005000B0006005100AB
:106DC0000700DE0008000800090017000A0099000B
:106DD0000B000D000C0015000D0018000E002A001D
:106DE0000F0000001000000011000100120046001A
:106DF0001300050014009900150099001600990071
:106E000017003C001800EF00190000001A00830072
:106E10001B0060001C00A9001D00C0002B007F00AB
:106E20002C0056002D007900002F0400012F2000B7
:106E3000022F0A00052F000003000600122F000099
:106E4000132F5F00172F0E00192F03001B2F330085
:106E50001D2F17001F2F5000202F6E00212F140010
:106E6000222FAC00322F0E00332FA000342FC7008A
:106E7000362F0300382F00001E0000001F00000006
:106E8000200003002100120026000000270005005A
:106E90002800200029000F002A00000004009300B1
:106EA00005000B00060051000700DE000800080086
:106EB000090017000A0053000B002F000C0004000B
:106EC0000D0018000E002A000F0000001000000046
:106ED0001100010012004600130005001400A30079
:106EE000150033001600330017003C001800EC00BA
:106EF000190000001A0083001B0060001C00A9009C
:106F00001D00C0002B007F002C0056002D0001004A
:106F1000002F0000012F2000022F0A00052F000083
:106F20000300060008000B000A00D2000B0000005E
:106F30000C001C000F0033001000C6001100690097
:106F40001300050014001F00150075001600100046
:106F500017001500180019001C00A9001D00CF0023
:106F60001E00000020000300210012002600000087
:106F7000270005002800200029000F002A0000003B
:106F80002E00FF002D007C00002F0000012F2200AA
:106F90000C2F6C000D2F8000122F0000132F5F00AC
:106FA000172F0E00192F03001B2F33001D2F170062
:106FB0001F2F5000202F6E00212F1400222FAC0015
:106FC000322F0E00362F03000300060008000B00CE
:106FD0000A00A3000B000A000C001C000F00330085
:106FE0001000C600110010001300050014003F003F
:106FF0001500750016001000170020001800190079
:107000001C00A9001D00CF001E000000200003008E
:10701000210012002B0066002D007C0026000000DD
:10702000270005002800200029000F002A0000008A
:107030002E00FF00002F0000012F22000C2F560011
:107040000D2FEC000E2F2800112F0500122F00002D
:10705000132F5F00172F0E00192F03001B2F330073
:107060001D2F17001F2F5000202F6E00212F1400FE
:10707000222FAC00322F0E00342FC700362F07000E
:1070800003000600080008000A0047000B000D007E
:107090000C0015000D0018000F002E00100000005D
:1070A00011000200130005001400940015007A007E
:1070B0001600E10017003C001800EF001C00A900BA
:1070C0001D00C0001E00000020000300210014006D
:1070D00026000000270005002800200029000F00DE
:1070E0002A0000002D0079002E00FF00002F000074
:1070F000022F0A000C2F56000D2FCC000E2FCC00B3
:10710000112F0500122F0000132F5F00172F0E0004
:10711000192F03001B2F33001D2F17001F2F5000A6
:10712000202F6E00212F1400222FAC00322F0E00D2
:10713000342FC700362F07000400D300050091004C
:107140000600D300070091008AFF9EFF9CFF7FFF8F
:1071500085FF92FF9A99993F00004842000016432C
:107160009A99993E9A99993F0000484200000F0071
:10717000010006000200B0000300260008000B001A
:107180000C001C000D0018001000C60011000800C3
:107190001300050017002000180002001C00A000CA
:1071A0001E00000020000300210012002300200028
:1071B000240002002500EA00280020002A0009001F
:1071C0002E00FF00002F0000012F22000C2F6C006A
:1071D0000D2F8000122F0000132F5F00162F40008C
:1071E000172F0E00192F03001B2F33001D2F170020
:1071F0001F2F5000202F6E00212F1400222FAC00D3
:10720000272FB400322F0E00352F00000300060098
:10721000080008000A00A3000B000A000C001C0074
:107220000F0033001000C60011001000130005000D
:1072300014003F0015007500160010001700200014
:1072400018000C001C00A0001E000000200003001D
:107250002100120023002000240002002500EA0083
:10726000280020002A0009002E00FF00002F000047
:10727000012F22000C2F56000D2FEC000E2F28009E
:10728000112F0500122F0000132F5F00172F0E0083
:10729000192F03001B2F33001D2F17001F2F500025
:1072A000202F6E00212F1400222FAC00322F0E0051
:1072B000342FC70002000600030047000800050045
:1072C0000B0006000D0021000E0062000F0076008A
:1072D0001000F500110083001200130015001500C6
:1072E00018001800190016002000FB002300E90018
:1072F00024002A002500000026001F002C00810029
:107300002D0035002E0009000700040009000000D0
:107310000B0006000C0000001000F50011008300B7
:1073200012001300150015001600070019001600C2
:107330001A006C001B0003001C0040001D0091009F
:107340002000FB002100B6002C0081002D0035003C
:107350002E00090007000400090000000B000600D1
:107360000C0000001000CA0011008300120013007E
:107370001500350016000700190016001A006C00F1
:107380001B0043001C0040001D0091002000FB007A
:107390002100B6002C0081002D0035002E000900D0
:1073A00007000400090000000B000C000C000000A6
:1073B00010002D0011003B001200130015006200A8
:1073C0001600070019001D001A001C001B00C70052
:1073D0001C0000001D00B0002000FB002100B600D2
:1073E0002C0088002D0031002E000900000029002B
:1073F00001002E0002000600030007000400D30075
:10740000050091000600FF00080005000D001000B7
:107410000E00B1000F003B001700300018001800EC
:107420002300EA0024002A002500000026001F0097
:10743000290059002A007F002B003F0090FF98FF91
:10744000A1FF9A99993F1F851942A4F07943000042
:107450002E000200060003004700080005000D0092
:1074600021000E0062000F0076001000F5001100F0
:1074700083001200130015001500180018002000EA
:10748000FB002300E90024002A002500000026005C
:107490001F002C0081002D0035002E0009000C007B
:1074A00000001000F500110083001200130013000B
:1074B000220015001500220010002C0081002D0074
:1074C00035002E0009000C0000001000CA00110059
:1074D0008300120013001300220015003500220063
:1074E00010002C0081002D0035002E0009000C003A
:1074F000000010002D0011003B00120013001300CB
:10750000220015006200220010002C0088002D00CF
:1075100031002E0009000000290001002E000200A9
:107520000600030007000400D300050091000600D8
:10753000FF00080005000D0010000E00B1000F0054
:107540003B0017003000180018002300EA00240058
:107550002A002500000026001F00290059002A00EB
:107560007F002B003F009A99993F1F851942A4F094
:107570007943030006000A00D1000B0000000C0054
:107580005D000E008A000F00CB00100061001100AA
:1075900040001200050013003F00140075001500A4
:1075A0001000160020001700EC001B0051001C000A
:1075B000C7001D000000200012002100120028005A
:1075C00020002B003F002E00FF00002F1C00012F89
:1075D0002200052F0C000C2F5F000D2F8000122FB2
:1075E0000700132FAF00162F4000172F0E00192F82
:1075F00003001B2F33001D2F17001F2F0000202F0B
:107600006E00212F1400222FAC00272FB500322F3F
:107610000E00362F0300030006000A00D1000B0005
:1076200000000C005D000E008A000F00CB0010006F
:107630006100110040001200050013003F0014001B
:10764000750015001000160020001700EC001B004C
:1076500051001C00C7001D00000020001200210086
:107660001200280020002B003F002E00FF00002FFA
:107670001C00012F2200052F0C000C2F5F000D2F86
:107680008000122F0700132FAF00162F4000172F76
:107690000E00192F03001B2F33001D2F17001F2F63
:1076A0000000202F6E00212F1400222FAC00272F66
:1076B000B500322F0E00362F0300030006000A002B
:1076C000D1000B0000000C005D000E008A000F00CE
:1076D000CB001000610011004000120005001300F3
:1076E0003F00140075001500100016002000170060
:1076F000EC001B0051001C00C7001D000000200012
:10770000120021001200280020002B003F002E0054
:10771000FF00002F1C00012F2200052F0C000C2F52
:1077200056000D2FCC000E2FCC00122F0700132F68
:10773000AF00162F4000172F0E00192F03001B2F2C
:1077400033001D2F17001F2F5000202F6E00212FF8
:107750001400222FAC00272FB500322F0E00362F39
:1077600003000300060004006F0005004E00060041
:10777000900007004E000800E500090023000A0001
:1077800047000B000B000C0056000D0018000E0007
:10779000BA000F00CA00100084001100420012005D
:1077A00005001300940014007A001500E100160093
:1077B00031001700F1001B0011001C00D0001D005B
:1077C000000020001200280020002E00FF00002FE3
:1077D0001800022F0300052F02000C2F56000D2F5A
:1077E000CC000E2FCC00122F0700132FAA00162F4B
:1077F0004000172F0E00192F03001B2F33001D2FE1
:1078000017001F2F0000202F6E00212F1400222FA1
:10781000AC00272FB5002F2F0500322F0E00362F7A
:107820000300030006000800A900090023000A0065
:1078300047000B000C000C0066000D0018000E0045
:1078400088000F00C900100004001100420012005F
:1078500005001300B40014007A001500E1001600C2
:1078600039001700E7001B0012001C00D0001D00AB
:10787000000020001200280020002E00FF00002F32
:107880001C00022F0300052F00000C2F56000D2FA7
:10789000CC000E2FCC00122F0700132FAA00162F9A
:1078A0004000172F0E00192F03001B2F33001D2F30
:1078B00017001F2F0000202F6E00212F1400222FF1
:1078C000AC00272FB5002F2F0900322F0E00362FC6
:1078D00003000400D300050091000600D300070058
:1078E000910088FF93FF99FF9A99993F00004842C1
:1078F0000000484301001300030006000A00D10005
:107900000B0000000C005D000E008A000F00CB0091
:107910001000A600110040001200050013003F00F7
:107920001400750015001000160020001700FF005D
:107930001B0040001C0083001D0000001F0003000E
:107940002000120022002000230003002400A500D4
:1079500026000000280020002A0009002B003F001C
:107960002E00FF00002F1C00012F2200052F0C000D
:107970000C2F56000D2FCC000E2FCC00102FEE0038
:10798000112F1000122F0700132FAF00162F4000E9
:10799000172F0E00192F03001B2F33001D2F170068
:1079A0001F2F0000202F6E00212F1C00222FAC0063
:1079B000272FB500322F0E000000979D9A9D0000E2
:1079C0000000000000000000000000800000379E62
:1079D0000000000000000000000000000000499EC0
:1079E0004B9E00000000000010510100000000004C
:1079F000579E599E000000000000D050010000007A
:107A000000800000379E0000000000000000000021
:107A100000000000499E599E000000000000D05068
:107A20000100000000800000379E00000000000000
:107A30000000000000000000499E4B9E0000000076
:107A40000000105101000000000063A0B0A0000081
:107A50000000000082500100140000006EA0B5A0DC
:107A600000000000000082500100190000007EA00C
:107A7000BCA0000000000000825001001E00008039
:107A8000000059A6000000000000000000000000F7
:107A900000006DA66FA60000EE1C00002C35010052
:107AA0000100000080A682A60000EE1C00002C351C
:107AB000010003000080000059A600000000000043
:107AC00000000000000000006DA66FA60000FE1C74
:107AD00000002C3501000100000080A682A60000F5
:107AE000FE1C00002C35010003000080000059A698
:107AF00000000000000000000000000000006DA673
:107B00006FA60000CE1C00002C3501000100000013
:107B100080A693A60000CE1C00002C3501000300B7
:107B20000080000059A600000000000000000000D6
:107B3000000000006DA66FA60000DE1C00002C35C2
:107B400001000100000080A693A60000DE1C0000DA
:107B50002C350100030000800000A4A600000000F6
:107B6000000000000000000000006DA6B7A60000A5
:107B70001E1D0000AA5001000000000080A6BFA644
:107B800000001E1D0000AA50010001000000C7A651
:107B9000C9A600001E1D0000AA500100020000003E
:107BA000D1A6D3A600001E1D0000AA5001000300AC
:107BB0000000DBA6DDA600001E1D0000AA5001008B
:107BC000040000800000A4A60000000000000000E7
:107BD0000000000000006DA6B7A600001E1D0000FA
:107BE000AA5001000000000080A6BFA600001E1DD4
:107BF0000000AA50010001000000C7A6C9A60000AD
:107C00001E1D0000AA50010002000000D1A6D3A64C
:107C100000001E1D0000AA50010003000000DBA6AA
:107C2000DDA600001E1D0000AA5001000400008017
:107C30000000A4A6000000000000000000000000FA
:107C400000006DA6E5A600001E1D0000AA50010060
:107C50000000000080A6BFA600001E1D0000AA5064
:107C6000010001000000C7A6C9A600001E1D0000FB
:107C7000AA50010002000000D1A6D3A600001E1DDC
:107C80000000AA500100030000800000A4A600002C
:107C90000000000000000000000000006DA6E5A646
:107CA00000001E1D0000AA5001000000000080A678
:107CB000BFA600001E1D0000AA5001000100000028
:107CC000C7A6C9A600001E1D0000AA5001000200A0
:107CD0000000D1A6D3A600001E1D0000AA5001007E
:107CE000030000800000A4A60000000000000000C7
:107CF0000000000000006DA6EDA600001E1D0000A3
:107D0000AA5001000000000080A6D3A600001E1D9E
:107D10000000AA500100010000800000A4A600009D
:107D20000000000000000000000000006DA6EDA6AD
:107D300000001E1D0000AA5001000000000080A6E7
:107D4000D3A600001E1D0000AA5001000100008003
:107D50000000F5A600000000000000000000000088
:107D600000006DA609A700006E1D0000CAC3000038
:107D70000000000080A610A700000000000042F0F4
:107D80000000000000800000F5A6000000000000D8
:107D900000000000000000006DA609A70000DE1D25
:107DA0000000CAC300000100000080A610A7000068
:107DB0000000000042F00000000000800000F5A676
:107DC00000000000000000000000000000006DA6A0
:107DD00009A70000CE1D0000000000000000000008
:107DE00080A610A700000000000042F00000000084
:107DF00000800000F5A60000000000000000000068
:107E0000000000006DA609A70000AE1E0000CAC356
:107E100000000000000080A610A70000BE1E0000A9
:107E2000CAC30000000000800000F5A600000000AA
:107E3000000000000000000000006DA609A700007F
:107E40009E1E0000CAC30000000000800000F5A6CE
:107E500000000000000000000000000000006DA60F
:107E600010A700009E1E0000CAC300000000008092
:107E70000000F5A600000000000000000000000067
:107E800000006DA609A700006E1D0000CAC3000017
:107E90000000000080A610A700000000000042F0D3
:107EA000000000000082000016A700000000000093
:107EB000000000000000009E00000000CE2C00002A
:107EC000000000000000000000006DA629A70000CF
:107ED000000000000000000000000080000043A738
:107EE00000000000000000000000000000006DA67F
:107EF00053A70000EE1C00002C350100000000001C
:107F000080A65DA70000BE1C00000000000000006D
:107F10000000C7A669A700007E1E00000000000048
:107F200000000080000043A70000000000000000E7
:107F30000000000000006DA653A70000FE1C00001A
:107F40002C3501000000000080A65DA70000BE1CCB
:107F500000000000000000000000C7A669A70000A4
:107F60007E1E00000000000000000080000043A70B
:107F700000000000000000000000000000006DA6EE
:107F800053A70000FE1C00002C350100000000007B
:107F900080A669A700007E1E00000000000000000F
:107FA0000080000043A70000000000000000000067
:107FB000000000006DA653A70000FE1C00002C3539
:107FC00001000000000080A669A700007E1E0000DE
:107FD0000000000000000080000043A70000000037
:107FE000000000000000000000006DA653A7000084
:107FF0000E1D00002C3501000000000080A693A695
:1080000000000E1D00002C35010003000080000060
:1080100043A7000000000000000000000000000076
:108020006DA653A70000CE1C00002C3501000000F7
:10803000000080A65DA70000BE1C0000000000003C
:1080400000000000C7A669A700007E1E0000000017
:10805000000000000080000043A7000000000000B6
:1080600000000000000000006DA653A70000CE1C19
:1080700000002C3501000000000080A65DA7000074
:10808000BE1C00000000000000000000C7A669A799
:1080900000007E1E000000000000000000800000C4
:1080A00075A70000000000000000000000000000B4
:1080B0006DA689A700003E1D00004AB10000011115
:1080C000000080A69DA700003E1D00004AB10000F0
:1080D00090010000C7A669A700008E1E00000000E6
:1080E000000000000080000075A7000000000000F4
:1080F00000000000000000006DA6B1A700003E1DBA
:1081000000004AB100002011000080A6C5A70000B1
:108110003E1D00004AB1000090200000C7A669A7DC
:1081200000008E1E00000000000000000080000023
:10813000D9A70000000000000000000000000000BF
:108140006DA6EEA700007E1D0000000000000000EC
:1081500000CB0000F8A74E25000000000000000042
:108160000000000080A604A800002E1E00000000F1
:108170000000000000C300000DA85425000000000E
:108180000000000000000000C7A616A80000CE1DD9
:1081900000000CF30000000000800000D9A70000E0
:1081A0000000000000000000000000006DA6EEA727
:1081B00000008E1D000000000000000000CB000049
:1081C000F8A74E250000000000000000000000009D
:1081D00080A604A800003E1E000000000000000071
:1081E00000C300000DA8542500000000000000009E
:1081F00000000000C7A616A80000CE1D00000CF36A
:108200000000000000800000D9A70000000000006E
:1082100000000000000000006DA6EEA700009E1DFB
:10822000000000000000000000CB0000F8A74E2571
:1082300000000000000000000000000080A604A86C
:1082400000004E1E000000000000000000C30000FF
:108250000DA85425000000000000000000000000F0
:10826000C7A616A80000CE1D00000CF300000000F9
:1082700000800000D9A700000000000000000000FE
:10828000000000006DA6EEA70000AE1D000000007B
:108290000000000000CB0000F8A74E250000000001
:1082A000000000000000000080A604A800005E1E80
:1082B000000000000000000000C300000DA85425CD
:1082C000000000000000000000000000C7A616A883
:1082D0000000CE1D00000CF3000000000080000034
:1082E000D9A700000000000000000000000000000E
:1082F0006DA6EEA70000BE1D0000000000000000FB
:1083000000CB0000F8A74E25000000000000000090
:1083100000000080000004A8000000000000000031
:108320000000000000C300000DA85425000000005C
:108330000000000000000000C7A616A80000CE1D27
:1083400000000CF30000000000800000D9A700002E
:108350000000000000000000000000006DA6EEA775
:108360000000BE1D000000000000000000CB000067
:10837000F8A74E250000000000000000000000806B
:10838000000004A800000000000000000000000041
:1083900000C300000DA854250000000000000000EC
:1083A00000000000C7A616A80000CE1D00000CF3B8
:1083B000000000000080000023A800000000000072
:1083C00000000000000000006DA634A800000000BE
:1083D0000000844B01000000000080A642A80000BD
:1083E00000000000844B010001000000C7A650A857
:1083F000000000000000844B01000200008000002B
:1084000023A80000000000000000000000000000A1
:108410006DA634A8000000000000844B010000009D
:10842000000080A642A8000000000000844B01006C
:1084300001000000C7A650A8000000000000844B07
:10844000010002000080000023A8000000000000DE
:1084500000000000000000006DA634A8000000002D
:108460000000844B01000000000080A65EA8000010
:1084700000000000844B010001000000C7A66CA8AA
:10848000000000000000844B01000200008000009A
:1084900023A8000000000000000000000000000011
:1084A0006DA67AA8000000000000844B01000000C7
:1084B000000080A634A8000000000000844B0100EA
:1084C00001000000C7A65EA8000000000000844B69
:1084D000010002000080000023A80000000000004E
:1084E00000000000000000006DA688A80000000049
:1084F0000000844B01000000000080A697A8000047
:1085000000000000844B010001000000C7A6A6A8DF
:10851000000000000000844B010002000080000009
:1085200023A8000000000000000000000000000080
:108530006DA634A8000000000000844B010000007C
:10854000000080A6B5A8000000000000844B0100D8
:1085500001000000C7A6C8A8000000000000844B6E
:10856000010002000000D1A6D6A800000000000013
:10857000844B010003000080000023A800000000DD
:10858000000000000000000000006DA6E4A800004C
:1085900000000000844B01000000000080A6F2A84B
:1085A000000000000000844B010001000000C7A68D
:1085B00000A9000000000000844B01000200000040
:1085C000D1A60EA9000000000000844B01000300AA
:1085D0000080000023A80000000000000000000050
:1085E000000000006DA61CA9000000000000844BE4
:1085F00001000000000080A6F2A8000000000000BA
:10860000844B0100010000006DA62AA900006E1E27
:108610000000000000000000000080A63CA900004F
:1086200000000000724A01000000008000004BA919
:1086300000000000000000000000000000006DA627
:108640005DA90000EE1D0000A05001000000000028
:1086500080A665A90000FE1D0000A05001000100D9
:1086600000C0000076A9000000000000000000002B
:10867000000000800000D9A70000000000000000FA
:10868000000000000080000000000000000000006A
:1086900000000000000000006DA6EEA700007E1D97
:1086A000000000000000000000CB0000F8A74E25ED
:1086B000000000000000000000000000C7A688A91C
:1086C00000000E1E000000000000000000C30000BB
:1086D00096A9522500000000000000000000008064
:1086E000000000000000000000000000000000008A
:1086F00000800000D9A7000000000000000000007A
:1087000000000080000000000000000000000000E9
:10871000000000000000D1A604A800002E1E0000EA
:1087200000000000000000C300000DA85425000058
:1087300000000000000000000000DBA616A80000FA
:10874000CE1D00000CF30000000000800000D9A73F
:108750000000000000000000000000000080000099
:108760000000000000000000000000000000000009
:108770006DA6EEA700008E1D0000000000000000A6
:1087800000CB0000F8A74E2500000000000000000C
:1087900000000000C7A688A900000E1E000000000F
:1087A0000000000000C3000096A952250000000050
:1087B0000000000000000080000000000000000039
:1087C000000000000000000000800000D9A70000A9
:1087D0000000000000000000000000800000000019
:1087E0000000000000000000000000000000D1A612
:1087F00004A800003E1E000000000000000000C3AE
:1088000000000DA85425000000000000000000003A
:108810000000DBA616A80000CE1D00000CF300002F
:10882000000000800000D9A7000000000000000048
:1088300000000000008000000000000000000000B8
:1088400000000000000000006DA6EEA700009E1DC5
:10885000000000000000000000CB0000F8A74E253B
:10886000000000000000000000000000C7A688A96A
:1088700000000E1E000000000000000000C3000009
:1088800096A95225000000000000000000000080B2
:1088900000000000000000000000000000000000D8
:1088A00000800000D9A700000000000000000000C8
:1088B0000000008000000000000000000000000038
:1088C000000000000000D1A604A800004E1E000019
:1088D00000000000000000C300000DA854250000A7
:1088E00000000000000000000000DBA616A8000049
:1088F000CE1D00000CF30000000000800000D9A78E
:1089000000000000000000000000000000800000E7
:108910000000000000000000000000000000000057
:108920006DA6EEA70000AE1D0000000000000000D4
:1089300000CB0000F8A74E2500000000000000005A
:1089400000000000C7A688A900000E1E000000005D
:108950000000000000C3000096A95225000000009E
:108960000000000000000080000000000000000087
:10897000000000000000000000800000D9A70000F7
:108980000000000000000000000000800000000067
:108990000000000000000000000000000000D1A660
:1089A00004A800005E1E000000000000000000C3DC
:1089B00000000DA854250000000000000000000089
:1089C0000000DBA616A80000CE1D00000CF300007E
:1089D000000000800000D9A7000000000000000097
:1089E0000000000000006DA6EEA700007E1D000044
:1089F00000000000000000CB0000F8A74E2500009A
:108A00000000000000000000000080A688A900000F
:108A10000E1E000000000000000000C3000096A928
:108A20005225000000000000000000000000C7A662
:108A300004A800002E1E000000000000000000C37B
:108A400000000DA8542500000000000000000000F8
:108A500000800000D9A70000000000000000000016
:108A600000000000D1A6A3A900001E1E0000000007
:108A70000000000000C30000B4A95625000000005B
:108A80000000000000000000DBA616A80000CE1DBC
:108A900000000CF30000000000800000D9A70000D7
:108AA0000000000000000000000000006DA6EEA71E
:108AB00000008E1D000000000000000000CB000040
:108AC000F8A74E2500000000000000000000000094
:108AD00080A688A900000E1E000000000000000013
:108AE00000C3000096A9522500000000000000000D
:108AF00000000000C7A604A800003E1E0000000001
:108B00000000000000C300000DA854250000000074
:108B100000000000000000800000D9A70000000055
:108B200000000000000000000000D1A6A3A9000082
:108B30001E1E000000000000000000C30000B4A9D9
:108B40005625000000000000000000000000DBA629
:108B500016A80000CE1D00000CF3000000000080ED
:108B60000000D9A700000000000000000000000085
:108B700000006DA6EEA700009E1D00000000000092
:108B8000000000CB0000F8A74E2500000000000008
:108B900000000000000080A688A900000E1E000052
:108BA00000000000000000C3000096A9522500004C
:108BB00000000000000000000000C7A604A800009C
:108BC0004E1E000000000000000000C300000DA8C1
:108BD000542500000000000000000000008000009C
:108BE000D9A7000000000000000000000000000005
:108BF000D1A6A3A900001E1E000000000000000076
:108C000000C30000C2A956250000000000000000BB
:108C100000000000DBA616A80000CE1D00000CF32B
:108C20000000000000800000D9A700000000000044
:108C300000000000000000006DA6EEA70000AE1DC1
:108C4000000000000000000000CB0000F8A74E2547
:108C500000000000000000000000000080A688A9BD
:108C600000000E1E000000000000000000C3000015
:108C700096A952250000000000000000000000003E
:108C8000C7A604A800005E1E00000000000000004F
:108C900000C300000DA854250000000000000000E3
:108CA000000000800000D9A70000000000000000C4
:108CB000000000000000D1A6A3A900001E1E0000B5
:108CC00000000000000000C30000C2A956250000FB
:108CD00000000000000000000000DBA616A8000055
:108CE000CE1D00000CF30000000000800000D1A9A0
:108CF0000000000000000000000000000000E6A9E5
:108D0000E9A9000000000000A24A010003000000E1
:108D1000F4A9F7A9000000000000A24A0100050024
:108D2000000002AA05AA000000000000A24A0100FB
:108D30000A00000010AA13AA000000000000A24AC6
:108D400001000F0000001EAA21AA00000000000080
:108D5000A24A0100140000002CAA2FAA0000000063
:108D60000000A24A0100190000800000D1A9000003
:108D70000000000000000000000000003AAA3DAA28
:108D8000000000000000A24A01001E00000048AAE6
:108D90004BAA000000000000A24A010023000000CE
:108DA00056AA59AA000000000000A24A01002800AB
:108DB000000064AA67AA000000000000A24A0100A7
:108DC0002D00000072AA75AA000000000000A24A4F
:108DD00001003200000080AA83AA00000000000009
:108DE000A24A0100370000800000D1A90000000065
:108DF000000000000000000000008EAA91AA000000
:108E000000000000A24A01003C00008000009CAA73
:108E100000000000000000000000000000C0000092
:108E2000B1AA0000000000000000000000000000E7
:108E30006DA6C0AA0000000000008C4F01000100D8
:108E4000000080A6CBAA0000000000008C4F0100AB
:108E500002000000C7A6D7AA0000000000008C4F47
:108E6000010003000000D1A6E3AA000000000000FA
:108E70008C4F010004000000DBA6EFAA00000000F8
:108E800000008C4F0100050000800000FBAA0000DC
:108E90000000000000000000000000006DA610AB04
:108EA000000000000000584B01000100000080A6F7
:108EB00018AB000000000000584B01000700000044
:108EC000C7A620AB000000000000584B01000600C0
:108ED0000000D1A628AB000000000000584B0100A4
:108EE00005000000DBA630AB000000000000584B7E
:108EF00001000400000038AB3AAB000000000000A5
:108F0000584B0100030000800000FBAA0000000095
:108F10000000000000000000000042AB44AB000075
:108F200000000000584B0100020000004CAB4EABAB
:108F3000000000000000584B01000000008000000D
:108F4000FBAA00000000000000000000000000007C
:108F50006DA610AB000000000000584B010001009E
:108F6000000080A618AB000000000000584B010074
:108F700007000000C7A620AB000000000000584B0F
:108F8000010006000000D1A628AB00000000000090
:108F9000584B010005000000DBA630AB00000000CC
:108FA0000000584B01000400000038AB3AAB000051
:108FB00000000000584B0100030000800000FBAAE5
:108FC000000000000000000000000000000042ABB4
:108FD00044AB000000000000584B010002000000FC
:108FE0004CAB4EAB000000000000584B01000000ED
:108FF00000800000FBAA000000000000000000004C
:10900000000000006DA656AB000000000000584BA9
:1090100001000100000080A610AB0000000000006D
:10902000584B010006000000C7A620AB000000005E
:109030000000584B010005000000D1A628AB00003D
:1090400000000000584B010004000000DBA65EABEE
:10905000000000000000584B01000300000038AB86
:1090600030AB000000000000584B010002000080FF
:109070000000FBAA0000000000000000000000004B
:10908000000042AB66AB000000000000584B01003E
:10909000000000800000FBAA0000000000000000AB
:1090A0000000000000006DA656AB000000000000AC
:1090B000584B01000100000080A610AB000000002A
:1090C0000000584B010006000000C7A620AB0000BE
:1090D00000000000584B010005000000D1A628AB9D
:1090E000000000000000584B010004000000DBA657
:1090F0005EAB000000000000584B010003000000C0
:1091000038AB30AB000000000000584B01000200FB
:1091100000800000FBAA000000000000000000002A
:109120000000000042AB66AB000000000000584B9E
:1091300001000000008000006EAB00000000000095
:109140000000000000000080000083AB0000000071
:10915000000000000000000000006DA691AB0000C0
:1091600000000000B45001006400000080A695AB30
:10917000000000000000B4500100E8030000C7A692
:109180009AAB000000000000B4500100102700005E
:10919000D1A6A0AB000000000000B4500100E8FD23
:1091A00000006DA6A6AB000000000000000000005B
:1091B000000000800000B1AB0000000000000000D3
:1091C0000000000000800000C6AB000000000000AE
:1091D00000000000000000800000D0AB0000000094
:1091E000000000000000000000800000E3AB000071
:1091F0000000000000000000000000800000E3AB61
:1092000000000000000000000000000000800000DE
:10921000E3AB0000000000000000000000000000C0
:1092200080A6E4AB00000000000000000000000089
:1092300000800000F1AB0000000000000000000012
:10924000000000800000C6AB00000000000000002D
:109250000000000000800000D0AB00000000000013
:109260000000000000000080000006AC00000000CC
:1092700000000000000000000080000019AC0000A9
:109280000000000000000000000000800000E3ABD0
:1092900000000000000000000000000000006DA6BB
:1092A0002DAC000000000000000000000000008065
:1092B00000003AAC000000000000000000000000C8
:1092C0000080000050AC0000000000000000000022
:1092D0000000000080A65AAC000000000000000062
:1092E000000000000080000061AC000000000000F1
:1092F0000000000000000080000077AC00000000CB
:10930000000000000000000000800000D9A700005D
:109310000000000000000000000000006DA6EEA7A5
:1093200000008E1D000000000000000000CB0000C7
:10933000F8A74E250000000000000000000000001B
:1093400080A604A800003E1E0000000000000000EF
:1093500000C300000DA8542500000000000000001C
:1093600000000000C7A688AC000000000000B02A82
:109370000100000000800000D9A7000000000000EC
:1093800000000000000000006DA6EEA700008E1D8A
:10939000000000000000000000CB0000F8A74E25F0
:1093A00000000000000000000000000080A688AC63
:1093B0000000CE1D000046430100000000800000B8
:1093C000D9A700000000000000000000000000001D
:1093D0006DA6EEA700008E1D00000000000000003A
:1093E00000CB0000F8A74E250000000000000000A0
:1093F0000000000080A688AC0000CE1D0000BA402E
:109400000100000000800000D9A70000000000005B
:1094100000000000000000006DA6EEA700007E1D09
:10942000000000000000000000CB0000F8A74E255F
:1094300000000000000000000000000080A688ACD2
:109440000000CE1D0000BA400100000000800000B6
:10945000D9A700000000000000000000000000008C
:109460006DA6EEA700009E1D000000000000000099
:1094700000CB0000F8A74E2500000000000000000F
:109480000000000080A688AC0000CE1D0000BA409D
:109490000100000000800000D9A7000000000000CB
:1094A00000000000000000006DA6EEA70000BE1D39
:1094B000000000000000000000CB0000F8A74E25CF
:1094C00000000000000000000000000080A688AC42
:1094D0000000CE1D0000BA40010000000080000026
:1094E000D9A70000000000000000000000000000FC
:1094F0006DA6EEA70000BE1D0000000000000000E9
:1095000000CB0000F8A74E2500000000000000007E
:109510000000000080A688AC0000CE1D0000BA400C
:109520000100000000800000D9A70000000000003A
:1095300000000000000000006DA6EEA70000AE1DB8
:10954000000000000000000000CB0000F8A74E253E
:1095500000000000000000000000000080A688ACB1
:109560000000CE1D0000BA40010000000080000095
:10957000D9A700000000000000000000000000006B
:109580006DA6EEA700008E1D000000000000000088
:1095900000CB0000F8A74E250000000000000000EE
:1095A0000000000080A604A800003E1E000000008D
:1095B0000000000000C300000DA8542500000000BA
:1095C0000000000000000000C7A688AC00000000FA
:1095D00000003A2A0100000000800000D9A7000026
:1095E0000000000000000000000000006DA6EEA7D3
:1095F00000007E1D000000000000000000CB000005
:10960000F8A74E2500000000000000000000000048
:1096100080A604A800002E1E00000000000000002C
:1096200000C300000DA85425000000000000000049
:1096300000000000C7A688AC0000000000003A2A25
:109640000100000000800000D9A700000000000019
:1096500000000000000000006DA6EEA700009E1DA7
:10966000000000000000000000CB0000F8A74E251D
:1096700000000000000000000000000080A604A818
:1096800000004E1E000000000000000000C30000AB
:109690000DA854250000000000000000000000009C
:1096A000C7A688AC0000000000003A2A01000000B4
:1096B00000800000D9A700000000000000000000AA
:1096C000000000006DA6EEA70000BE1D0000000017
:1096D0000000000000CB0000F8A74E2500000000AD
:1096E000000000000000008080A604A80000000028
:1096F000000000000000000000C300000DA8542579
:10970000000000000000000000000000C7A688ACB8
:109710000000000000003A2A010000000080000064
:10972000D9A70000000000000000000000000000B9
:109730006DA6EEA70000BE1D0000000000000000A6
:1097400000CB0000F8A74E2500000000000000003C
:109750000000008080A604A80000000000000000B7
:109760000000000000C300000DA854250000000008
:109770000000000000000000C7A688AC0000000048
:1097800000003A2A0100000000800000D9A7000074
:109790000000000000000000000000006DA6EEA721
:1097A0000000AE1D000000000000000000CB000023
:1097B000F8A74E2500000000000000000000000097
:1097C00080A604A800005E1E00000000000000004B
:1097D00000C300000DA85425000000000000000098
:1097E00000000000C7A688AC0000000000003A2A74
:1097F0000100000000800000E2AC0000000000005A
:109800000000000000000000F4ACF6AC0000000016
:1098100000007E51010000000000FDACFFAC000024
:10982000000000007A51010000000080000014AD2B
:109830000000000000000000000000000000F4AC88
:1098400027AD0000CE1E00006C510100000000009A
:10985000FDAC2FAD0000CE1E00006C5101000100D8
:10986000000037AD39AD0000CE1E00006C51010084
:109870000200000041AD43AD0000CE1E00006C515F
:109880000100030000004BAD4DAD0000CE1E0000F6
:109890006C510100040051033C03CA141A2020201B
:1098A00020456173794C696E6B2054657374202078
:1098B0002020005265636569766564206F6B3A000D
:1098C0002020202020205061636B65742052582096
:1098D0002020202020202000202020204561737996
:1098E0004C696E6B205465737420202020005365F2
:1098F0006E74207061636B6574733A0020202020C1
:1099000020205061636B6574205458202020202053
:10991000202020004A12C20D1C345185CB12C00EEB
:109920001D346084C803C00E1E278ECDC703C20F2E
:109930001E275081CBE20AECF1F60005072020201B
:1099400020456173794C696E6B20546573742020D7
:109950002020005265636569766564206F6B3A006C
:109960002020202020205061636B657420525820F5
:1099700020202020202020005000000000000000B7
:1099800020202020456173794C696E6B20546573EB
:1099900074202020200053656E74207061636B6515
:1099A00074733A002020202020205061636B65747E
:1099B0002054582020202020202020004A12C20DB0
:1099C0001C345185CB12C00E1D346084C803C00EF8
:1099D0001E278ECDC703C20F1E275081CBE20AEC93
:1099E000F1F6000507828F83906C6C6C6C03370076
:1099F0001B001A20202020456173794C696E6B2072
:109A00005465737420202020005265636569766573
:109A100064206F6B3A002020202020205061636B6F
:109A20006574205258202020202020202000202053
:109A30002020456173794C696E6B205465737420E6
:109A40002020200053656E74207061636B65747311
:109A50003A002020202020205061636B6574205440
:109A600058202020202020202000666666033F0F1B
:109A700019232D37F00EF6FB00050A202020205276
:109A80005820536E69666620546573742020202028
:109A9000002020202020526164696F20696E2054CC
:109AA000582020202020002020202020202020209E
:109AB0002020202020202020002020507265737359
:109AC00020726967687420627574746F6E2020005C
:109AD00020202020746F2073656E64207061636B9A
:109AE000657420200020312041626F7274204D6126
:109AF00073746572204D6F6465200053656E742029
:109B0000506B74206E756D6265723A0020202020C3
:109B100020526164696F20696E20525820202020F5
:109B2000202000202057616974696E6720666F727B
:109B3000207061636B657420200020312041626FCA
:109B4000727420536C617665204D6F6465200052FD
:109B50006376276420506B74206E723A004D6973EF
:109B600073656420506B7427733A00525353493A1B
:109B70000020202020456173794C696E6B2054656C
:109B80007374202020200052656365697665642027
:109B90006F6B3A002020202020205061636B657499
:109BA0002052582020202020202020004A50000051
:109BB000000000000020202020456173794C696E70
:109BC0006B2054657374202020200053656E742030
:109BD0007061636B6574733A002020202020205050
:109BE00061636B65742054582020202020202020A1
:109BF0000012C20D1C345185CB12C00E1D3460847E
:109C0000C803C00E1E278ECDC703C20F1E2750816A
:109C1000CBE20AECF1F60005072020202045617315
:109C2000794C696E6B20546573742020202000529B
:109C300065636569766564206F6B3A00202020209B
:109C400020205061636B6574205258202020202012
:109C50002020200020202020456173794C696E6B04
:109C60002054657374202020200053656E7420708A
:109C700061636B6574733A002020202020205061BE
:109C8000636B657420545820202020202020200061
:109C9000665454033F0F19232D37F00EF6FB0005D1
:109CA0000A20202020525820536E69666620546591
:109CB000737420202020002020202020526164691D
:109CC0006F20696E20545820202020200020202062
:109CD00020202020202020202020202020200020A4
:109CE000205072657373207269676874206275749E
:109CF000746F6E20200020202020746F2073656E0A
:109D000064207061636B6574202000203120416203
:109D10006F7274204D6173746572204D6F6465209D
:109D20000053656E7420506B74206E756D626572A1
:109D30003A002020202020526164696F20696E2043
:109D4000525820202020202000202057616974696B
:109D50006E6720666F72207061636B6574202000EF
:109D600020312041626F727420536C617665204D02
:109D70006F64652000526376276420506B74206EF8
:109D8000723A004D697373656420506B7427733A9F
:109D900000525353493A003C2D00205265747572AD
:109DA0006E20746F206D656E750043686970204980
:109DB0006E666F726D6174696F6E005465737420A6
:109DC000636F756C64206E6F740064657465637492
:109DD000206120737570706F7274656400726164C5
:109DE000696F004465766963653A004343004C003F
:109DF00056657273696F6E3A002E006E2F610058BF
:109E00004F534320667265713A004D487A0054659D
:109E1000737420636F756C64206E6F740064657476
:109E2000656374206120737570706F72746564006F
:109E300020726164696F002020202053656C656387
:109E400074204465766963650031004D6173746503
:109E5000722028545829003200536C617665202006
:109E60002852582900456173794C696E6B205465FE
:109E70007374003131B010002D002E0000005F001F
:109E8000000007000700147F147F14242A7F2A1281
:109E90002313086462364955225000050300000070
:109EA0001C2241000041221C00082A1C2A08080824
:109EB0003E080800503000000808080808006060EC
:109EC000000020100804023E5149453E00427F40F8
:109ED0000042615149462141454B311814127F100F
:109EE00027454545393C4A49493001710905033642
:109EF00049494936064949291E00363600000056B0
:109F000036000000081422411414141414412214C1
:109F100008000201510906324979413E7E111111B2
:109F20007E7F494949363E414141227F4141221CC1
:109F30007F494949417F090901013E414151327F31
:109F40000808087F00417F41002040413F017F0811
:109F50001422417F404040407F0204027F7F04087A
:109F6000107F3E4141413E7F090909063E41512192
:109F70005E7F09192946464949493101017F01019E
:109F80003F4040403F1F2040201F7F2018207F631C
:109F90001408146303047804036151494543000025
:109FA0007F4141020408102041417F00000402016A
:109FB0000204404040404000010204002054545438
:109FC000787F484444383844444420384444487FE7
:109FD0003854545418087E090102081454543C7F24
:109FE0000804047800447D40002040443D00007F88
:109FF00010284400417F40007C041804787C080449
:10A00000047838444444387C141414080814141890
:10A010007C7C080404084854545420043F444020E5
:10A020003C4040207C1C2040201C3C4030403C44B4
:10A03000281028440C5050503C4464544C440008B0
:10A0400036410000007F00000041360800003E1C41
:10A05000080040A1C0A6A22FF800278116AC00AFCF
:10A06000B010003100504552205465737400320026
:10A07000456173794C696E6B2054657374003300CD
:10A08000525820536E69666620546573740034001C
:10A090004368697020496E666F726D6174696F6E96
:10A0A00000350053657420436F6E747261737400E1
:10A0B00048696768004D656469756D004C6F77008D
:10A0C00053656C65637420436F6E747261737400C2
:10A0D0004D61696E204D656E7500544558415300C1
:10A0E000494E535452554D454E5453000000000004
:10A0F000000000000000000000000000C0C0C0C060
:10A10000C0C0C0C0C0C0C0C0C0C0000000000000CF
:10A11000000000000000000000000000000000003F
:10A12000000000000000000000000000000000002F
:10A13000000000000000000000000000000000001F
:10A14000000000C00000C000C040408000000000CF
:10A15000000000000000C0404040404040C00000FF
:10A1600000000000000000000000000000000000EF
:10A17000000000000000000000000000FFFFFFFFE3
:10A18000FFFFFFFFFFFFFFFFFFFF000000000000D9
:10A1900000787E7E7E7E3E00000000000000000011
:10A1A00000000000000000000000000000000000AF
:10A1B000000000000000000000000000000000009F
:10A1C000000000E72828A7A02F21E10000000000E0
:10A1D0000000000000003F2026292926203F000023
:10A1E000000000000000000000000000000000006F
:10A1F000000000000000000000000000FFFFFFFF63
:10A20000FFFFFFFFFFFFFFFFFFFFFEFEFE0600E078
:10A21000FEFEFEFEFE0600E0FEFEFEFEFEFEFEFE72
:10A22000FEFEFEFE0000C040408000008040800036
:10A23000000080404000C000804000E02020A0A03E
:10A240002020E01F1013141413101FE02020A0A0E2
:10A250002020E000C040404000C0800000C04040DE
:10A26000C04040C040404000C0404080F0F0F0F0AE
:10A27000F0F0F0F0F0F0F0F0F0F0F0F0FFFFFFFFA2
:10A28000FFFFFFFFFFFFFF8F818080000080FCFF4A
:10A29000FFFFFF1F008080808080F9FFFFFFFFFF2E
:10A2A000FFFFFFFFF8E0CF090906000E0302030ECF
:10A2B0000003040808000F030408001F10131414FF
:10A2C00013101FE02020A0A02020E01F1013141462
:10A2D00013101F000F0A0A08000F0003040F0000EC
:10A2E0000F00000F0A0A08000F02020D0001070705
:10A2F0000F1F7FFFFFFFFFFFFFFFFFFFFFFFFFFFBE
:10A30000FFFFFFFFFFFFFFFFFF7F0300F0FFFFFFE7
:10A31000FFFF0700F0FFFFFFFFFFFFFFFFFFFFFF53
:10A32000FFFFFFFFFFFFFF00000000000000000034
:10A3300000000000000000000000000000C04040DD
:10A340008000805F509314D413101FC000C08000A1
:10A3500000C000000000000000000000000000003D
:10A3600000000000000000000000000000000000ED
:10A3700000000001071F3F7F7F7F7F3F1F0F0F07F8
:10A380000F0F1F7FFFFFFFFFCF80000003030303BA
:10A3900003000000030383FFFFFFFFFF7F7F3F3FBA
:10A3A0001F1F0F0F0707070000000000000000003C
:10A3B000000000000000000000000000000F08087E
:10A3C000070007080807000708070807000F000331
:10A3D000040F00000000000000000000000000006A
:10A3E000000000000000000000000000000000006D
:10A3F000000000000000000000000000000000005D
:10A400000000000001071F7FFFFFFFFFFEFEFEFEB2
:10A41000FEFEFEFEFEFE7F1F07030100000000009F
:10A42000000000000000000000000000000000002C
:10A43000000000000000000000000000000000001C
:10A44000000000000000000000000000000000000C
:10A4500000000000000000000000000000000000FC
:10A4600000000000000000000000000000000000EC
:10A4700000000000000000000000000000000000DC
:10A48000000000000000000001030F1F1F3F7F7F3E
:10A49000FFFFFFFFFFFFE0000000000000000000E2
:10A4A00000000000000000000000000000000000AC
:10A4B000000000000000000000000000000000009C
:10A4C000000000000000000000000000000000008C
:10A4D000000000000000000000000000000000007C
:10A4E0000000000000000000000000007E004D6140
:10A4F000696E204D656E75002F0020202020446578
:10A5000076696365206C696E6B696E672020200038
:10A5100020202020202020206661696C6564202096
:10A520002020202020002020506C65617365206C65
:10A53000696E6B20616761696E2020005045522072
:10A54000535441544953544943533A20312F320014
:10A5500050726F67726573735B255D20203A004708
:10A560006F6F6420506B7473202020203A004C6F72
:10A57000737420506B7473202020203A0050455291
:10A580005B255D202020202020203A0041564720D6
:10A59000525353495B64426D5D3A004C696E6B20C7
:10A5A0004D5B64426D5D20203A002352652D54724C
:10A5B000616E736D6974733A005045522053544173
:10A5C000544953544943533A20322F320050455294
:10A5D000207465737420636F756C64206E6F7400F3
:10A5E000646574656374206120737570706F727434
:10A5F000656400726164696F0020202020002020C3
:10A600002B3200202D323200202D343600202D3701
:10A610003000202D3934002D313138005253534948
:10A620003A2020202064426D0020436F6E6E6563E7
:10A6300074696E672E2E2E20202020204C696E6BB0
:10A6400065642020202020202054657374205275DA
:10A650006E6E696E672E2E2E202053656C656374B6
:10A6600020457870657274204D6F64650031004D2F
:10A67000616E75616C204D6F646520202020200084
:10A6800032004C696E6B20627970617373206D6F5C
:10A690006465004C696E6B20427970617373204D64
:10A6A0006F646500202053656C6563742046726595
:10A6B0007175656E637900313639204D487A003402
:10A6C0003334204D487A003300383638204D487AEC
:10A6D000003400393135204D487A003500393535A0
:10A6E000204D487A00333135204D487A00383639CC
:10A6F000204D487A002053656C656374204465766C
:10A70000696365204D6F6465004D61737465720007
:10A71000536C61766500536C617665204D6F64659E
:10A72000205374617475733A0041626F72742053E0
:10A730006C617665204D6F6465005045522054650C
:10A740007374002020202053656C656374204D6F66
:10A7500064650045617379204D6F646500457870CC
:10A76000657274204D6F646500496E666F726D612D
:10A7700074696F6E002053656C6563742052616468
:10A78000696F20436F6D626F004343313130312078
:10A790005374616E6420416C6F6E652000434331D9
:10A7A0003130312B43433131393020436F6D626F8B
:10A7B00000434331313230205374616E6420416C68
:10A7C0006F6E6520004343313132302B43433131CA
:10A7D000393020436F6D626F0020204C696E6B2012
:10A7E000436F6E66696775726174696F6E0044616C
:10A7F00074612052617465002020205B6B62697473
:10A800002F735D00545820506F7765720020202010
:10A810005B64426D5D004C696E6B206465766963B4
:10A8200065730053656C65637420446174612052E4
:10A83000617465002020312E3230206B6269742FE4
:10A8400073002033382E3338206B6269742F730005
:10A850003234392E3934206B6269742F73002035FD
:10A86000302E3030206B6269742F73003135302EFA
:10A870003030206B6269742F73002020302E33300B
:10A88000206B6269742F7300202020312E3230201B
:10A890006B6269742F7300202035302E3030206BAE
:10A8A0006269742F7300203230302E3030206B629A
:10A8B00069742F73002020312E3230206B6269744E
:10A8C0002F732053454E53002020342E3830206BF8
:10A8D0006269742F73002033382E3338206B42693D
:10A8E000742F7300202020392E36206B6269742F5C
:10A8F0007300202035302E30206B6269742F730076
:10A90000203135302E30206B6269742F7300203374
:10A9100030302E30206B4269742F7300202020319C
:10A920002E32206B6269742F73004E756D626572F2
:10A93000206F66205061636B65747300537461729D
:10A9400074205045522054657374002053656C6523
:10A950006374204C696E6B2054797065004F6E658E
:10A960002D5761790054776F2D576179207769747D
:10A97000682041434B002020616E642072652D7475
:10A9800072616E736D6974005061636B6574204C05
:10A99000656E677468002020205B2320427974650F
:10A9A000735D00506B742072652D7472616E736DEF
:10A9B0006974730020205B23205061636B6574739E
:10A9C0005D002020205B23205061636B6574735D04
:10A9D0000053656C656374205061636B6574204C33
:10A9E000656E677468002031003A20203320427978
:10A9F000746573002032003A202035204279746556
:10AA000073002033003A203130204279746573009E
:10AA10002034003A203135204279746573002035A6
:10AA2000003A203230204279746573002036003AB3
:10AA3000203235204279746573002037003A203384
:10AA400030204279746573002038003A2033352075
:10AA50004279746573002039003A203430204279FD
:10AA6000746573003130003A2034352042797465C2
:10AA700073003131003A203530204279746573001B
:10AA80003132003A20353520427974657300313314
:10AA9000003A20363020427974657300416C6C6F47
:10AAA0007765642072652D7472616E736D6974735D
:10AAB0000020202020706572207061636B65740037
:10AAC0003A2031207061636B6574003A2032207047
:10AAD00061636B657473003A2033207061636B654A
:10AAE0007473003A2034207061636B657473003AAC
:10AAF0002035207061636B657473002053656C654D
:10AB00006374206F757470757420706F7765720050
:10AB10002031302064426D002020372064426D00D7
:10AB20002020352064426D002020302064426D00DA
:10AB30002D31302064426D0036002D3135206442C5
:10AB40006D0037002D32302064426D0038002D3307
:10AB5000302064426D002031342064426D00202D8D
:10AB6000352064426D002D31362064426D00202076
:10AB700053656C656374206E756D626572206F66D7
:10AB80002020002020202020207061636B657473DA
:10AB90000031303000313030300031303030300072
:10ABA00036353030300045617379204D6F64653A39
:10ABB000002D2046657720636F6E66696775726148
:10ABC00074696F6E200020206F7074696F6E73005F
:10ABD0002D204F6E652D57617920504552207465A8
:10ABE00073740000457870657274204D6F64653A27
:10ABF000002D204D6F726520636F6E6669677572F8
:10AC00006174696F6E002D2054776F2D5761792024
:10AC10005045522074657374002020776974682051
:10AC200072652D7472616E736D6974200053746166
:10AC30006E6420416C6F6E653A00202D20434331D5
:10AC4000317878204576616C756174696F6E20008B
:10AC500020204D6F64756C652000436F6D626F3A04
:10AC600000202D20434331317878207769746820A3
:10AC70004343313139300020202052462066726F24
:10AC80006E7420656E642E00537461727420746556
:10AC9000737400536E696666207465737420636F05
:10ACA000756C64206E6F74006465746563742061F4
:10ACB00020737570706F7274656400726164696F7F
:10ACC0002E002000557365204343313132782050E7
:10ACD0004720322E782E004F7220434331323030DD
:10ACE0002E002020202053656C6563742044657617
:10ACF0006963650031004D61737465720032005301
:10AD00006C6176652000525820536E696666205447
:10AD100065737400202053656C656374204672650A
:10AD20007175656E637900313639204D487A00348B
:10AD30003334204D487A003300383638204D487A75
:10AD4000003400393135204D487A00350039353529
:10AD5000204D487A00436172726965722053656EB6
:10AD600073652054687273686C640073657420683E
:10AD700069676820666F722044454D4F2075736582
:01AD800000D2
:10AD8200B87900000000AA9D00000100FF007E00CB
:10AD9200CA7900000000659E579E0301FF00000073
:10ADA200000063A065A00000582500001E360100C7
:10ADB200000000006EA070A00000101C0000B6F59C
:10ADC2000000000000007EA080A00000DE1E000047
:10ADD20068F40000000000008EA090A00000001C9B
:10ADE20000006ED1000000000000A1A0A3A000009E
:10ADF2009E1C000000000000000000800000000017
:10AE0200000000000000000000000000009D0000A3
:10AE12000000C21F00000000000000000000487A8D
:10AE2200AE1C0000C0A07EA0030000000000201C99
:10AE320000000000D0A0A1A00700FF000000EA7AF5
:10AE42000000000000006DA60301FF000000567B19
:10AE5200000000000000DBA6060303000000C27B26
:10AE6200000000000000DBA60603030000002E7CA9
:10AE7200000000000000D1A6050202000000887C4C
:10AE8200000000000000D1A6050202000000187DAB
:10AE920000000000000080A60301010000004E7DBA
:10AEA20000000000000080A60301FF000000A47E55
:10AEB200000000003AA76DA60302FF006A00DA7ED6
:10AEC200000000000000C7A60401FF0000009C80F3
:10AED200000000000000C7A60401FF000000E4809B
:10AEE200000000000000C7A60401FF0000002C8142
:10AEF200000000000000C7A60605FE000000B483A3
:10AF02006E1D00000000C7A6040000000000FC83C4
:10AF12009E1E00000000C7A604000000000044843A
:10AF22006E1D00000000C7A6040202000000D484C7
:10AF32006E1D00000000C7A60402020000001C856E
:10AF42006E1D00000000D1A6050404000000068664
:10AF52006E1D0000000080A60201FF0000002A868C
:10AF620000000000000080A60400FF0000007286BE
:10AF7200000000000000DBA60C02FF000000D289E6
:10AF8200DE1D00000000DBA60B01FF000000EA8CC2
:10AF92000000000000008EAA1001010000000A8ECD
:10AFA200FE1D00000000DBA6070404000000888EDE
:10AFB2000000000000004CAB0A04040000003C8FBB
:10AFC2000000000000004CAB0A0404000000F08FF7
:10AFD2006E1D0000000042AB0904040000009290C4
:10AFE2006E1D0000000042AB090404000000349111
:10AFF200CE1D00000000D1A6060303000000A091B0
:10B00200000000003AA780A60E00FF0000009C92FC
:10B01200000000003AA780A60600FF00000074931B
:10B0220000000000000080A60403FE00000004945B
:10B0320000000000000080A60403FE000000D89576
:10B04200000000000000C7A60605FE000000F497FD
:10B052000000000006ADFDAC0301FF00E0002A98ED
:10B062000000000000004BAD0603030000000100D9
:10B072000000070C18C7472D3520346223313B07E7
:10B082000C180C1D8910B13B21627623313B070C51
:10B09200180C1D8910B13B21627623313B12126CD0
:10B0A200B0CD7260001A1412121269F1FF6C8000A6
:10B0B2006C800072600077600054C18956CCCC5617
:10B0C200EC285B80005F80006069F1FF6C80006C9F
:10B0D200800072600077600054C18956CCCC56CC97
:10B0E200CC5B80005F80000A040202020C260B0681
:10B0F20038371006070C180C1D8910B13B216276F7
:10B1020023313B0C180C1D8910B13B21627623318F
:10B112003B1A1412121254C18956CCCC56CCCC5BB9
:10B1220080005F80006054C18956CCCC56CCCC5B89
:10B1320080005F80000A040202020C260B063837E8
:07B14200100676342E3300E5
:10B14A002F4C3F9090010420B24090014825143CB6
:10B15A003F9090200420B240902048250D3C3F901B
:10B16A0001110420B24001114825063C3F902011EC
:10B17A000320B24020114825B290011148255820D9
:10B18A00B24006D69A20B24000009C20B240A048A5
:10B19A009E20B2400100A020B2407CFAA220B24018
:10B1AA000000A420B2402630A620B2400100A82008
:10B1BA00B2405250AE20B2400100B020B240483BEB
:10B1CA00B220B2400100B420B240424BB620B24095
:10B1DA000100B820B240344DBA20B2400100BC2070
:10B1EA00B2408651BE20B2400100C020B2404C4F4E
:10B1FA00C620B2400100C820B2403851AA20B2404D
:10B20A000100AC20B2400442CA20B2400100CC2066
:10B21A00B2400A50C220B2400100C4207C40030060
:10B22A00B113E63E8013BA20B013D8C64C431001BE
:10B23A00B290100148254920B240D6D39A20B24094
:10B24A0000009C20B240A0489E20B2400100A020ED
:10B25A00B240D8FCA220B2400000A420B240DA30AA
:10B26A00A620B2400100A820B2402250AE20B2402F
:10B27A000100B020B240083CB220B2400100B42024
:10B28A00B2402C4BB620B2400100B820B240A04DCB
:10B29A00BA20B2400100BC20B2408E51BE20B2405A
:10B2AA000100C020B2406C4EC620B2400100C82046
:10B2BA00B240C850AA20B2400100AC20B2403A4283
:10B2CA00CA20B2400100CC20A33FB2901301482506
:10B2DA003120B2408EDF9A20B24000009C20B2405A
:10B2EA00A0489E20B2400100A020B24006FEA22043
:10B2FA00B2400000A420B2405E50AE20B24001002D
:10B30A00B020B2406E4BB620B2400100B820B24025
:10B31A00464DBA20B2400100BC20B2403C4FC62084
:10B32A00B2400100C820B2402C41CA20B2400100FC
:10B33A00CC206E3FB290150148253D20B240D4EE94
:10B34A009A20B24000009C20B240A0489E20B24001
:10B35A000100A020B240E243A220B2400100A42092
:10B36A00B2403431A620B2400100A820B240083BC6
:10B37A00B220B2400100B420B240B04BB620B24075
:10B38A000100B820B240B24DBA20B2400100BC2040
:10B39A00B2407651BE20B2400100C020B2405C4E9D
:10B3AA00C620B2400100C820B2402051AA20B240B3
:10B3BA000100AC202D3FB290900148254920B240AF
:10B3CA0040BA9A20B24000009C20B240A0489E2079
:10B3DA00B2400100A020B240AAFBA220B240000065
:10B3EA00A420B240C43CA620B2400100A820B2402A
:10B3FA00BC4EAE20B2400100B020B240A637B22007
:10B40A00B2400100B420B2409A4BB620B2400100CB
:10B41A00B820B2406A4DBA20B2400100BC20B24006
:10B42A007251BE20B2400100C020B2409C47C620E3
:10B43A00B2400100C820B2404051AA20B2400100E7
:10B44A00AC20B2406241CA20B2400100CC20E03EAA
:10B45A00B290902048254920B24054CC9A20B2405C
:10B46A0000009C20B240A0489E20B2400100A020CB
:10B47A00B2406203A220B2400100A420B240023DC1
:10B48A00A620B2400100A820B2404C4EAE20B240E5
:10B49A000100B020B240CC2FB220B2400100B4204B
:10B4AA00B240EA4AB620B2400100B820B2407C4D10
:10B4BA00BA20B2400100BC20B2409A51BE20B2402C
:10B4CA000100C020B2403C4EC620B2400100C82054
:10B4DA00B240344CAA20B2400100AC20B240B83984
:10B4EA00CA20B2400100CC20933EB29025114825D3
:10B4FA000824B290201148250424B290211148252D
:10B50A004920B240AAC09A20B24000009C20B24012
:10B51A00A0489E20B2400100A020B2402201A220F1
:10B52A00B2400100A420B240863CA620B2400100ED
:10B53A00A820B2400C4FAE20B2400100B020B24069
:10B54A006E36B220B2400100B420B240F24BB620AF
:10B55A00B2400100B820B240584DBA20B2400100B2
:10B56A00BC20B2409251BE20B2400100C020B2407D
:10B57A009046C620B2400100C820B240E850AA2036
:10B58A00B2400100AC20B240FC39CA20B2400100EE
:10B59A00CC203E3EB290001248250424B2900112FB
:10B5AA0048254A20B24002CF9A20B24000009C208F
:10B5BA00B240A0489E20B2400100A020B240420200
:10B5CA00A220B2400100A420B240403DA620B240D1
:10B5DA000100A820B240EC4EAE20B2400100B020DB
:10B5EA00B2400A37B220B2400100B420B2401E4C29
:10B5FA00B620B2400100B820B240FE4CBA20B24098
:10B60A000100BC20B2408251BE20B2400100C020DD
:10B61A00B2409C4EC620B2400100C820B2405851E8
:10B62A00AA20B2400100AC20B240403ACA20B2403F
:10B63A000100CC2080001AB20C43B11364496F4355
:10B64A007E4006003D40CDA50C43B1135C1A7F40F5
:10B65A0003007E4006003D40E0A50C43B1135C1A8E
:10B66A006F427E4024003D40F3A50C43B1135C1A9F
:10B67A000C43B1137A433C400080B113E4483C4088
:10B68A000080B113E4487C403E00B113E8135C43E8
:10B69A0010017B1531801000074C484E4A4F29474C
:10B6AA004F4D0F5F0B4F5F0A0F5B095F4D4D5F47B1
:10B6BA000C008F113FF30D9F02205E43013C4E4365
:10B6CA00C14E0300C14300000F410F53814F0A00CE
